S014000041737369676E6D656E745F322E7372656366
S11300000C94C1010C94DE010C94DE010C94DE010D
S11300100C94DE010C9418020C94DE010C94DE01A5
S11300200C94DE010C94DE010C94DE010C94DE01D0
S11300300C94DE010C94DE010C94DE010C94DE01C0
S11300400C94B4110C94DE010C94DE010C94DE01CA
S11300500C94C7100C9485100C94DE010C94DE01F2
S11300600C94DE010C94DE010C94DE010C94DE0190
S11300700C94DE010C94DE010C94DE015072657365
S113008073206120627574746F6E206F7220277301
S1130090272F27532720746F207374617274206193
S11300A0206E65772067616D650047414D45204F9F
S11300B05645520043535345323031302F37323096
S11300C03120413220627920416C76696E2042658C
S11300D06E6E79202D20343830313238333600209A
S11300E05C24242020205C242420202020205C2444
S11300F020202020205C24242020205C2424202074
S113010020202020205C24242020205C2424202063
S11301105C24242424242424205C2424202020203F
S1130120202020205C242424242424007C20242433
S113013020207C202424202020205C24242420200F
S1130140207C20242420207C2024242020202020E3
S1130150207C20242420207C202424205C2424208F
S1130160202020205C7C20242420202020202020EB
S11301705C2424202020202424007C2024242020EB
S11301807C2024242020205C242420242420207C5F
S113019020242420207C2024242020202020207C93
S11301A020242420207C2024247C2024242424246F
S11301B02424247C2024242020202020207C20246B
S11301C0245F5F2F202424007C202424242424243E
S11301D0242420205C24245C20202424207C20242B
S11301E02424242424245C2020202020207C202457
S11301F0242424242424247C202424202020202477
S1130200247C2024242020205C24247C20242420DA
S1130210207C202424007C2024242020202024242A
S1130220205C24245C202F202024247C20242420CF
S113023020202024242020202020207C202424204E
S113024020202024247C20202424242424245C7C96
S113025020202424242424245C7C202024242424DA
S113026024245C007C2024245F5F7C2024247C20C4
S113027024242020207C2024247C2024245F5F7CD0
S11302802024242020202020207C2024245F5F7C24
S1130290202424202F2020202020205C20202F20F8
S11302A020202020205C20202F2020202020205CC3
S11302B0007C20202424242424245C7C2024242046
S11302C020207C2024247C20242424242424245C12
S11302D02020202020207C20242420207C20242452
S11302E020205F5F5F5F5F5F202020205F5F5F5F94
S11302F05F5F202020205F5F5F5F5F5F00202F2013
S113030020202020205C207C20205C2020207C20B9
S1130310205C7C202020202020205C202020202005
S113032020207C20205C20207C20205C0020205F7A
S11303305F5F5F5F5F2020205F5F20202020205FC1
S11303405F20205F5F5F5F5F5F5F202020202020B1
S11303502020205F5F202020205F5F001B5B3F3256
S11303603568001B5B3F32356C001B5B25646D00F8
S11303701B5B4B001B5B324A001B5B25643B256403
S1130380480011241FBECFEFD8E0DEBFCDBF15E07B
S1130390A0E0B1E0E0EEFEE202C005900D92A237CB
S11303A0B107D9F727E0A2E7B5E001C01D92A23357
S11303B0B207E1F70E94C10F0C946E170C94000071
S11303C0E8E6F0E08081826080838BB382608BBB3F
S11303D0ECE6F0E080818F608083109272050895CE
S11303E080917205181614F5809173056FB7F8940F
S11303F091E009C0F901ED58FA4F4081F901EE5836
S1130400FA4F40839F5F292F30E040917205042EFC
S1130410000C550B241735076CF39091720591501D
S11304209093720566231CF4789408958FEF0895D1
S11304301F920F920FB60F9211242F933F934F9355
S11304408F939F93EF93FF9343B14F7080E026C047
S11304509091720594300CF5242F30E0082E02C0E0
S1130460359527950A94E2F720FF17C02091770568
S113047030E0082E02C0359527950A94E2F720FD56
S11304800CC0E091720591E09E0F909372050E2EC0
S1130490000CFF0BED58FA4F80838F5F8430C0F25D
S11304A040937705FF91EF919F918F914F913F91E9
S11304B02F910F900FBE0F901F9018951F93CF93FD
S11304C0DF93182FD4E036C0CE3011F44FEF01C0C3
S11304D040E02C2F30E0205E3F4F211B3109ED2FEF
S11304E0F0E0BF016250710981E090E0DC0102C0DC
S11304F0AA0FBB1F6A95E2F7BD016150710926235B
S11305003723339702C0880F991FEA95E2F70197C2
S11305102817390729F4CE3010F44FE001C040EF1A
S11305206D2F8C2F0E944508CF5F01C0CBE0C031F6
S113053058F2DF5FD830D0F3DF91CF911F91089547
S11305401F93CF93DF93CDB7DEB728970FB6F894F8
S1130550DEBF0FBECDBF0E94810810E031C0E12F85
S1130560F0E0EA5DFE4F908180E021C0282F30E06A
S1130570492F50E0082E02C0559547950A94E2F79A
S113058040FF0DC0843010F44FE001C040EFE1E0C3
S1130590F0E0EC0FFD1FE20FF31F408307C0E1E022
S11305A0F0E0EC0FFD1FE20FF31F10828F5F883025
S11305B0E8F2BE016F5F7F4F812F0E9464081F5FC6
S11305C0103168F280E00E945E0228960FB6F8941B
S11305D0DEBF0FBECDBFDF91CF911F910895CF93A2
S11305E0DF93CDB7DEB728970FB6F894DEBF0FBE02
S11305F0CDBF0E94810880E009C0E1E0F0E0EC0F8B
S1130600FD1FE80FF11D9FEF90838F5F8830A8F3E3
S1130610BE016F5F7F4F8DE00E94640880E009C0D7
S1130620E1E0F0E0EC0FFD1FE80FF11D95E590838C
S11306308F5F8830A8F3BE016F5F7F4F8CE00E940C
S11306406408BE016F5F7F4F8EE00E94640880E003
S113065009C0E1E0F0E0EC0FFD1FE80FF11D91E1AE
S113066090838F5F8830A8F3BE016F5F7F4F8BE06C
S11306700E946408BE016F5F7F4F8FE00E94640890
S113068028960FB6F894DEBF0FBECDBFDF91CF9191
S113069008956CE070E08AE090E00E944C110E94A2
S11306A06611809185051F928F9386E391E09F9355
S11306B08F930E946314809185050F900F900F9083
S11306C00F90833009F078C08BB1806E8BB96FE0E6
S11306D070E08AE090E00E944C1180E491E09F93E6
S11306E08F930E94631460E170E08AE090E00E94BE
S11306F04C1186E791E09F938F930E94631461E10C
S113070070E08AE090E00E944C118BEA91E09F93A4
S11307108F930E94631462E170E08AE090E00E948B
S11307204C1180EE91E09F938F930E94631463E1D8
S113073070E08AE090E00E944C1186E192E09F9381
S11307408F930E94631463E170E08AE090E00E945A
S11307504C118CE492E09F938F930E94631464E1A4
S113076070E08AE090E00E944C1182E892E09F934E
S11307708F930E94631465E170E08AE090E00E9428
S11307804C1188EB92E09F938F930E94631466E16F
S113079070E08AE090E00E944C118DEE92E09F930D
S11307A08F930E9463148DB79EB742960FB6F89448
S11307B09EBF0FBE8DBF0895823021F48BB1806639
S11307C08BB90895813021F48BB180628BB908957F
S11307D0811149C06FE070E08AE090E00E944C1102
S11307E00E94661160E170E08AE090E00E944C1182
S11307F00E94661161E170E08AE090E00E944C1171
S11308000E94661162E170E08AE090E00E944C115F
S11308100E94661163E170E08AE090E00E944C114E
S11308200E94661164E170E08AE090E00E944C113D
S11308300E94661165E170E08AE090E00E944C112C
S11308400E94661166E170E08AE090E00E944C111B
S11308500E9466118BB18F7D8BB98BB18F7B8BB965
S11308608BB18F778BB908950F931F93CF93DF9339
S11308708C0164E070E08AE090E00E944C110E94D8
S11308806611C801112324F488279927801B910B32
S11308908A30910514F421E001C022E084369105E8
S11308A00CF023E011230CF42F5FD5E0D21B82E27D
S11308B093E09F938F930E9463140F900F90C0E076
S11308C005C080E290E00E949F14CF5FCD17C8F36B
S11308D01F930F938DE391E09F938F930E94631472
S11308E00F900F900F900F90DF91CF911F910F9168
S11308F008958F5F0AC0E0917805F0917905E80FBB
S1130900F11D90819F7021F48F5F8138A0F380E006
S113091008959C0140E050E060E472E48FE090E0D0
S11309200E94C113C9010895CF92DF92EF92FF9202
S11309306B017C01BA0180E090E00E948912A7015A
S113094096010E94401320E030E048EC52E40E94FB
S1130950E8110E945A12CB01FF90EF90DF90CF90E4
S113096008950E94EF02109212061092110610923E
S1130970850510920E0610920D0680E022C0E82F25
S1130980F0E0E657FA4F108290918405911107C068
S11309902FE234E0309379052093780511C091302B
S11309A039F42EEA33E0309379052093780508C0B2
S11309B0923031F42DE233E03093790520937805B9
S11309C08F5F8138E0F20895EF92FF920F931F93A7
S11309D0CF93DF93182FCBE084C1DFE0DC1B409181
S11309E01106509112064D0F511D9A01ADECBCEC4D
S11309F00E94021496958795969587959C01220FDF
S1130A00331F220F331F820F931F4817590709F012
S1130A1067C19A010E9402149695879596958795C9
S1130A20813808F05DC17C01FF24E0917805F091E4
S1130A307905EE0DFF1D208130E0012E02C03595B1
S1130A4027950A94E2F720FF36C140EF012F000FEB
S1130A50602F8C2F0E94450861E0600F40EF8C2FBF
S1130A600E944508F701E657FA4F80818130B1F4BE
S1130A7080918205909183050197909383058093DB
S1130A808205109285050E94490310928B001092F2
S1130A908A0010920E0610920D0626C1F701E65741
S1130AA0FA4F21E02083D430F9F4809182059091AB
S1130AB083050196909383058093820580E090E0FE
S1130AC0A0E0B0E48093860590938705A093880501
S1130AD0B093890580918505882309F492C010920A
S1130AE085050E9449038DC0D330F9F480918205B5
S1130AF0909183050296909383058093820580E00C
S1130B0090E0A0E2B1E48093860590938705A093DA
S1130B108805B093890580918505882309F471C0FF
S1130B20109285050E9449036CC0D23059F580911A
S1130B3082059091830503969093830580938205A3
S1130B40809185058F5F809385050E94490380E02D
S1130B5090E0A8E4B2E48093860590938705A0937F
S1130B608805B093890580918505833008F449C0D0
S1130B7080918205909183050196909383058093DB
S1130B8082053FC0D130F1F48091820590918305B4
S1130B900296909383058093820580E090E0A4EB15
S1130BA0B2E48093860590938705A0938805B0935B
S1130BB0890580918505882321F1109285050E947D
S1130BC049031FC0D1111DC08091820590918305F6
S1130BD00196909383058093820580E090E0A4ECD5
S1130BE0B2E48093860590938705A0938805B0931B
S1130BF0890580918505882321F0109285050E943E
S1130C004903133049F480910001909101019093BC
S1130C10100680930F0620C0123049F4809102011F
S1130C20909103019093100680930F0615C0113024
S1130C3049F48091040190910501909310068093EA
S1130C400F060AC0111108C0809106019091070196
S1130C509093100680930F0680910F0690911006D2
S1130C600E9489047C0160918605709187058091BA
S1130C70880590918905A7010E949404009779F052
S1130C80019790938B0080938A0080911106909134
S1130C901206059690930E0680930D0604C01092DA
S1130CA08B0010928A0081E0E81AF108F092890022
S1130CB0E092880015C08091820590918305019788
S1130CC090938305809382051092850510928B0082
S1130CD010928A0010920E0610920D060E9449038B
S1130CE0CF5FC03108F479CE80918205909183055D
S1130CF00E943404DF91CF911F910F91FF90EF90E8
S1130D000895BF92CF92DF92EF92FF920F931F93B9
S1130D10CF93DF93C0E090C08FE0D82EDC1A4091CF
S1130D201106509112064D0D511D9A01ADECBCEC0B
S1130D300E9402148C0116950795169507950138A3
S1130D4020F081E08093810576C09A01ADECBCEC83
S1130D500E94021496958795969587959C01220F7B
S1130D60331F220F331F820F931F4817590709F0AF
S1130D7062C0D0E05DC07801FF24E0917805F09175
S1130D807905EE0DFF1D808190E00D2E02C0959532
S1130D9087950A94E2F780FF4AC0CB3059F0CF30F0
S1130DA071F0CC3089F0CE30A1F0CD30B9F4BB2451
S1130DB0BA9415C00F2EF1E1BF2EF02D10C00F2EE6
S1130DC0F1E1BF2EF02D0BC00F2EF5E5BF2EF02D57
S1130DD006C00F2EF5E5BF2EF02D01C0B12C4B2D12
S1130DE0CD2ECC0C6C2D8C2F0E94450861E06C0D2F
S1130DF04B2D8C2F0E944508F701E657FA4F2081AE
S1130E0091E0D11090E081E0211180E0892379F014
S1130E108091820590918305019790938305809337
S1130E208205109285050E9434040E944903DF5F05
S1130E30D43008F4A0CFCF5FC03108F46DCF8091D7
S1130E401106909112060196909312068093110652
S1130E5020910D0630910E068217930751F480916C
S1130E608A0090918B00892B21F010928B001092B4
S1130E708A0060E070E08FEF0E9464082091110600
S1130E8030911206205F3F4FADECBCEC0E9402147F
S1130E9096958795969587950E947904182FC0E0BA
S1130EA027C0112321F1E0917805F0917905E10F34
S1130EB0F11D808190E00C2E02C0959587950A94CF
S1130EC0E2F780FF14C080918505833010F00FE1B4
S1130ED001C001E0402FDC2FDD0F6D2F80E00E9468
S1130EE0450861E06D0F402F80E00E944508CF5F08
S1130EF0C430B8F2C0E067C08FE08C1B409111068B
S1130F0050911206480F511D9A01ADECBCEC0E94A1
S1130F10021496958795969587959C01220F331F09
S1130F20220F331F820F931F4817590709F04AC035
S1130F309A010E9402148C0116950795169507953F
S1130F400138E8F181E0809381053CC098013327A2
S1130F50E0917805F0917905E20FF31F808190E02C
S1130F600D2E02C0959587950A94E2F780FF25C05F
S1130F70F901E657FA4F8081813049F08091850567
S1130F80833050F00F2EFCE3EF2EF02D09C00F2E0E
S1130F90F0EFEF2EF02D04C00F2EFFE0EF2EF02D1A
S1130FA04E2DFD2EFF0C6F2D8C2F0E94450861E005
S1130FB06F0D4E2D8C2F0E944508DF5F01C0D0E0DD
S1130FC0D43020F2CF5FC03108F496CFDF91CF91B7
S1130FD01F910F91FF90EF90DF90CF90BF900895F5
S1130FE0CF93C0918105C13009F047C010928B00A6
S1130FF010928A006FE070E08AE090E00E944C1149
S11310000E94661160E170E08AE090E00E944C1159
S11310100E94661161E170E08AE090E00E944C1148
S11310200E94661162E170E08AE090E00E944C1137
S11310300E94661163E170E08AE090E00E944C1126
S11310400E94661164E170E08AE090E00E944C1115
S11310500E94661165E170E08AE090E00E944C1104
S11310600E94661166E170E08AE090E00E944C11F3
S11310700E9466110E94810801C0C0E08C2FCF91AC
S1131080089580E80E941A1108951F93CF93DF9367
S11310908031B0F46830A0F4142FC62FD82F81E02B
S11310A00E9446116C2F677080E1689F90011124A3
S11310B08D2F8F70822B0E944611812F0E94461122
S11310C0DF91CF911F9108950F931F93CF93803198
S11310D0A0F48B01C82F83E00E9446118C2F8F70DF
S11310E00E944611C0E007C0F801EC0FF11D808199
S11310F00E944611CF5FC830B8F3CF911F910F9172
S113110008958FE00E944611089568E070E08AE037
S113111090E00E944C110E946611809114069091F7
S1131120150620910C0130910D018217930749F4A3
S113113080EB94E09F938F930E9463140F900F9021
S11311401FC020910A0130910B018217930749F4C3
S113115083EC94E09F938F930E9463140F900F90FD
S11311600FC020910801309109018217930741F4BF
S113117084ED94E09F938F930E9463140F900F90DB
S113118080918205909183050E9434040895909182
S1131190130681E0892780931306811131C0809161
S11311A08205909183058A30910554F06AE070E0DD
S11311B00E94AD13FC01E25FFE4F808188B93CC000
S11311C09C01275F3F4F2930310568F49C01992326
S11311D024F422273327281B390BF901E25FFE4F41
S11311E0808188B929C0873F2FEF92071CF480E4DF
S11311F088B922C0FC01E25FFE4F808188B91CC01F
S113120080918205909183058A3091057CF02AE0D3
S113121030E0B9010E94AD13CB01B9010E94AD13B6
S1131220FC01E25FFE4F808188B906C099231CF45B
S113123080E488B901C018B890911306913051F434
S11312402BB1892F90E0880F991F880F991F822B4B
S11312508BB903C08BB18B7F8BB980E197E2019787
S1131260F1F7089580918405823049F488EE94E082
S11312709F938F930E9463140F900F900895813071
S113128049F48AE095E09F938F930E9463140F9032
S11312900F900895811108C08DE295E09F938F937C
S11312A00E9463140F900F9008950E9441080E94B9
S11312B0E00140E060E07BE480E090E00E943210D6
S11312C00E948E110E94D9110E94E0117894089511
S11312D04F925F926F927F928F929F92AF92BF9242
S11312E0CF92DF92EF92FF92CF93DF9318B81092D0
S11312F07B050E945D110E9485110E945D110E9470
S11313007C1185E20E946F1164E070E08AE090E055
S11313100E944C118DE293E09F938F930E94791465
S113132065E070E08AE090E00E944C118DEF92E05D
S11313309F938F930E94791466E070E08AE090E0B6
S11313400E944C1181EB92E09F938F930E94791439
S113135067E070E08AE090E00E944C1184E692E03D
S11313609F938F930E94791468E070E08AE090E084
S11313700E944C1186E192E09F938F930E9479140E
S113138069E070E08AE090E00E944C1188EC91E002
S11313909F938F930E9479146AE070E08AE090E052
S11313A00E944C118AE791E09F938F930E947914D5
S11313B06BE070E08AE090E00E944C118CE291E0D6
S11313C09F938F930E9479146CE070E08AE090E020
S11313D00E944C118FED90E09F938F930E9479149B
S11313E06EE070E08AE090E00E944C1184EB90E0A3
S11313F09F938F930E9479140E94A0020E94A411CB
S11314004B015C0162E170E08AE090E00E944C11C3
S11314100E94661188EE93E090931506809314065B
S113142080EB94E09F938F930E9463141092840541
S113143064E170E08AE090E00E944C118DE295E056
S11314409F938F930E9463148DB79EB748960FB6EF
S1131450F8949EBF0FBE8DBFD0E00E947910882300
S113146041F080912C0790912D070E942514C82FDC
S113147001C0CFEF60E170E08AE090E00E944C117F
S1131480CD3411F0CD3681F480917B0581110CC0EF
S113149089E595E09F938F930E94631481E0809384
S11314A07B050F900F900CC0CD3411F0CD3641F474
S11314B080917B05882321F00E94661110927B05A0
S11314C0C133B9F488EE93E0909315068093140623
S11314D062E170E08AE090E00E944C110E94661183
S11314E080EB94E09F938F930E9463140F900F906E
S11314F031C0C233B9F484EF91E090931506809320
S1131500140662E170E08AE090E00E944C110E94AF
S1131510661183EC94E09F938F930E9463140F9061
S11315200F9018C0C333B1F48AEF90E0909315067E
S11315308093140662E170E08AE090E00E944C110E
S11315400E94661184ED94E09F938F930E9463142C
S11315500F900F90C43511F0C43789F5809184053C
S11315608F5F8093840564E170E08AE090E00E94DC
S11315704C110E94661180918405833058F01092BA
S113158084058DE295E09F938F930E9463140F90DE
S11315900F9015C0823049F488EE94E09F938F93A6
S11315A00E9463140F900F900AC0813041F48AE0C6
S11315B095E09F938F930E9463140F900F90C3370D
S11315C0B1F1C335A1F10E94F0018F3F81F50E9472
S11315D0A4116B017C012B013C01481859086A08CD
S11315E07B082091140630911506ADECBCEC0E94EA
S11315F002149695879596958795A0E0B0E084159A
S11316009505A605B70508F028CF8D2F0E945E0228
S11316108D2F90E001968F719078992324F401978F
S1131620806E9F6F0196D82F4601570116CFDF9128
S1131630CF91FF90EF90DF90CF90BF90AF909F90AD
S11316408F907F906F905F904F9008954F925F922C
S11316506F927F928F929F92AF92BF92CF92DF92BE
S1131660EF92FF92CF93DF930E94A4112B013C01D0
S11316700E94A4114B015C01109216061CC10E9429
S1131680C7080E94F001D82F0E947910882341F0E6
S113169080912C0790912D070E942514C82F01C01A
S11316A0CFEFDD2321F0C63611F0C63441F480912A
S11316B07A05811104C083E00E94E40428C0D1307B
S11316C021F0C43611F0C43441F480917A058111BB
S11316D004C082E00E94E4041AC0D23021F0C3376F
S11316E011F0C33541F480917A05811104C081E081
S11316F00E94E4040CC0D33021F0C13611F0C1348F
S113170031F480917A05811102C00E94E404CD3441
S113171011F0CD36C1F480917B05811114C066E0CF
S113172070E08AE090E00E944C1189E595E09F9377
S11317308F930E94631481E080937B0510921606B8
S11317400F900F9012C0CD3411F0CD3671F480910A
S11317507B05882351F066E070E08AE090E00E9407
S11317604C110E94661110927B05C03511F0C037F0
S1131770E9F480917A05811119C06AE070E08AE089
S113178090E00E944C1185E695E09F938F930E9410
S1131790631481E080937A058BB188608BB91092D1
S11317A08B0010928A000F900F9021C0C03511F069
S11317B0C037E9F480917A058823C9F06AE070E0C3
S11317C08AE090E00E944C110E94661110927A0502
S11317D08BB1877F8BB920910B0630910C0681E089
S11317E090E0821B930B90938B0080938A000E945D
S11317F0A4116B017C0180917B05811135C080911E
S1131800140690911506A5019401280F391F411D56
S1131810511DC216D306E406F50630F010928B0073
S113182010928A0046015701209114063091150642
S1131830ADECBCEC0E94021496958795969587951D
S1131840A3019201280F391F411D511DC216D30651
S1131850E406F50680F180917A0581112AC00E9480
S113186081062601370127C091E0CE3409F090E0CB
S113187081E0CE3609F080E0892BE9F00E948106F0
S113188080918A0090918B00892B31F0809116060B
S11318908F5F8093160602C010921606809116067A
S11318A0853049F410928B0010928A00109216062B
S11318B002C0260137010E94F007882309F4DFCE15
S11318C0DF91CF91FF90EF90DF90CF90BF90AF90DA
S11318D09F908F907F906F905F904F900895CF93DB
S11318E064E070E08AE090E00E944C1180918205EF
S11318F0909183050E94340466E070E08AE090E0F1
S11319000E944C110E9432096EE070E08AE090E07F
S11319100E944C110E9466118AEA90E09F938F9373
S11319200E9479146FE070E08AE090E00E944C110C
S11319308CE790E09F938F930E9479140F900F90FF
S11319400F900F90CFEF11C00E94C7080E9479102A
S1131950882339F080912C0790912D070E9425143B
S1131960C82FC33731F0C33521F00E94F0018F3FF7
S113197059F30E946809CF9108958F929F92AF9274
S1131980BF92CF92DF92EF92FF920E9481084FE0C4
S113199062E083E00E9445084FE063E083E00E9438
S11319A045084FE064E083E00E9445084FE065E0AD
S11319B083E00E9445084FE065E084E00E9445080A
S11319C04FE065E085E00E9445084FE065E086E071
S11319D00E9445084FE064E086E00E9445084FE01D
S11319E063E086E00E9445084FE062E086E00E94E2
S11319F045084FE065E087E00E9445084FE065E058
S1131A0088E00E9445084FE065E089E00E944508AF
S1131A104FE064E089E00E9445084FE063E089E01C
S1131A200E9445084FE062E089E00E944508609109
S1131A30140670911506660F771F80E090E00E94EF
S1131A4089124B015C0120E030E04AEF54E40E942B
S1131A5040136B017C0120E030E040E85FE30E942A
S1131A60E311882324F120E03FEF4FE757E4C70157
S1131A70B6010E943B131816ACF420E030E040E2BB
S1131A8051E4C501B4010E9440130E945A1206C0D9
S1131A9088EC90E00197F1F76150710961157105C7
S1131AA0B9F70AC0C701B6010E945A1202C061E028
S1131AB070E0CB010197F1F70E9481084FE062E0EA
S1131AC083E00E9445084FE063E083E00E944508FC
S1131AD04FE064E083E00E9445084FE065E083E066
S1131AE00E9445084FE065E084E00E9445084FE00D
S1131AF065E085E00E9445084FE065E086E00E94CD
S1131B0045084FE064E086E00E9445084FE063E04A
S1131B1086E00E9445084FE062E086E00E944508A6
S1131B204FE062E087E00E9445084FE062E088E011
S1131B300E9445084FE062E089E00E9445084FE0BA
S1131B4063E089E00E9445084FE064E089E00E9478
S1131B5045084FE065E089E00E944508609114065D
S1131B6070911506660F771F80E090E00E9489123D
S1131B704B015C0120E030E04AEF54E40E94401342
S1131B806B017C0120E030E040E85FE30E94E31158
S1131B90882324F120E03FEF4FE757E4C701B60163
S1131BA00E943B131816ACF420E030E040E251E40C
S1131BB0C501B4010E9440130E945A1206C088EC69
S1131BC090E00197F1F76150710961157105B9F75A
S1131BD00AC0C701B6010E945A1202C061E070E057
S1131BE0CB010197F1F70E9481084FE063E083E0A5
S1131BF00E9445084FE064E083E00E9445084FE0FE
S1131C0063E084E00E9445084FE064E084E00E94C1
S1131C1045084FE063E085E00E9445084FE064E03A
S1131C2085E00E9445084FE063E086E00E94450895
S1131C304FE064E086E00E9445084FE063E087E0FF
S1131C400E9445084FE064E087E00E9445084FE0A9
S1131C5063E088E00E9445084FE064E088E00E9469
S1131C6045084FE063E089E00E9445084FE064E0E6
S1131C7089E00E9445084FE063E08AE00E9445083D
S1131C804FE064E08AE00E94450860911406709178
S1131C901506660F771F80E090E00E9489124B01C1
S1131CA05C0120E030E04AEF54E40E9440136B01F1
S1131CB07C0120E030E040E85FE30E94E3118823E8
S1131CC024F120E03FEF4FE757E4C701B6010E943B
S1131CD03B131816ACF420E030E040E251E4C501B7
S1131CE0B4010E9440130E945A1206C088EC90E08E
S1131CF00197F1F76150710961157105B9F70AC0CF
S1131D00C701B6010E945A1202C061E070E0CB0123
S1131D100197F1F70E94810840EF60E083E00E94A0
S1131D20450840EF61E083E00E94450840EF62E02F
S1131D3083E00E94450840EF63E083E00E94450889
S1131D4040EF60E084E00E94450840EF60E085E0F9
S1131D500E94450840EF60E086E00E94450840EF9D
S1131D6060E087E00E94450840EF60E088E00E9460
S1131D70450840EF60E089E00E94450840EF61E0DB
S1131D8089E00E94450840EF62E089E00E9445082E
S1131D9040EF63E089E00E94450840EF63E088E09B
S1131DA00E94450840EF63E087E00E94450840EF49
S1131DB062E087E00E94450840EF65E083E00E940E
S1131DC0450840EF66E083E00E94450840EF67E085
S1131DD083E00E94450840EF65E084E00E944508E6
S1131DE040EF65E085E00E94450840EF65E086E04D
S1131DF00E94450840EF65E087E00E94450840EFF7
S1131E0065E088E00E94450840EF65E089E00E94B3
S1131E10450840EF66E089E00E94450840EF67E02E
S1131E2089E00E94450840EF67E088E00E94450889
S1131E3040EF67E087E00E94450840EF67E086E0F6
S1131E400E94450840EF67E085E00E94450840EFA6
S1131E5067E084E00E9445086091140670911506BD
S1131E60660F771F80E090E00E9489124B015C01AD
S1131E7020E030E04AEF54E40E9440136B017C01FF
S1131E8020E030E040E85FE30E94E311882324F17E
S1131E9020E03FEF4FE757E4C701B6010E943B1330
S1131EA01816ACF420E030E040E251E4C501B4017E
S1131EB00E9440130E945A1206C088EC90E00197D9
S1131EC0F1F76150710961157105B9F70AC0C701CD
S1131ED0B6010E945A1202C061E070E0CB01019782
S1131EE0F1F7FF90EF90DF90CF90BF90AF909F906D
S1131EF08F900895109281051092830510928205A7
S1131F00109285058FEF87B98AB184608AB98AB146
S1131F1088608AB98AB1806E8AB98AB180618AB9C7
S1131F200E945D1180917B05882371F066E070E06A
S1131F308AE090E00E944C1189E595E09F938F938D
S1131F400E9463140F900F900E948508E09182050F
S1131F50F0918305E25FFE4F808188B96EE070E006
S1131F608AE090E00E944C110E9432090E944903C9
S1131F700E94BD0C0E94B1040E94F0010E948010D6
S1131F8008950E9455090E9468090E947A0F0E94D0
S1131F90260B0E946F0CF9CFCF93C82F8A3019F407
S1131FA08DE00E94CC0F9FB7907802C0992329F14D
S1131FB0809119068F3FD1F3F894E091180681E0DF
S1131FC08E0F80931806F0E0E65EF94FC08380918F
S1131FD019068F5F80931906809118068F3F11F4BC
S1131FE010921806E1ECF0E08081806280839923EE
S1131FF039F0789480E090E005C081E090E002C080
S113200080E090E0CF91089580912B078823E1F33D
S11320102FB72078F8948091190730912B0790E01E
S1132020831B91095AF4E091190780912B07F0E082
S1132030E81BF109E65DF84F80810AC0E0911907B9
S113204080912B07F0E0E81BF109E65EF84F8081F0
S113205090912B07915090932B07222309F07894A9
S113206090E008951092180610921906109219071C
S113207010922B0710922A0740937C05DC01CB01B8
S1132080880F991FAA1FBB1F880F991FAA1FBB1F68
S11320909C01AD01220F331F441F551F60E072E104
S11320A08AE790E00E94E313BA01A9014F5F5F4FF2
S11320B06F4F7F4FDB01CA011AF40196A11DB11DB8
S11320C0B595A7959795879501979093C5008093AB
S11320D0C400E1ECF0E088E1808380818068808343
S11320E0ECE2F7E088E191E093838283918380833B
S11320F0089590912B0781E0911101C080E008952B
S11321001092190710922B0708951F920F920FB681
S11321100F9211242F938F939F93EF93FF938091AA
S11321201906882329F1809118062091190690E058
S1132130821B91095AF4E091180680911906F0E087
S1132140E81BF109E75EF84F90810AC0E091180698
S113215080911906F0E0E81BF109E65EF94F9081E1
S1132160809119068150809319069093C60005C08A
S1132170E1ECF0E080818F7D8083FF91EF919F916E
S11321808F912F910F900FBE0F901F9018951F9253
S11321900F920FB60F9211242F933F934F935F9397
S11321A06F937F938F939F93AF93BF93CF93EF934B
S11321B0FF93C091C60080917C05882349F08091EB
S11321C019068F3F29F060E070E08C2F0E94CC0F3D
S11321D080912B07803120F081E080932A0718C07A
S11321E0CD3009F4CAE0E091190781E08E0F8093A5
S11321F01907F0E0E65EF84FC08380912B078F5FEC
S113220080932B0780911907803111F410921907DC
S1132210FF91EF91CF91BF91AF919F918F917F915A
S11322206F915F914F913F912F910F900FBE0F903F
S11322301F90189594B1906B94B995B1906195B92C
S113224090E59CBD883021F0803211F0823019F481
S113225091E09DBD01C01DBC803269F028F4883036
S113226071F0803161F00EC0803429F0803851F46F
S11322708CB581608CBD8CB582608CBD03C08CB57F
S113228081608CBD85B18F7E85B908958EBD0DB4F6
S113229007FEFDCF8EB508959F938F937F936F9321
S11322A089E793E09F938F930E9479140F900F9086
S11322B00F900F900F900F90089584E793E09F93F1
S11322C08F930E9479140F900F90089580E793E004
S11322D09F938F930E9479140F900F9008951F92EB
S11322E08F938AE693E09F938F930E9479140F90C3
S11322F00F900F900F90089583E693E09F938F9330
S11323000E9479140F900F9008958CE593E09F93A9
S11323108F930E9479140F900F90089510927D0569
S113232010927E0510927F051092800516BC8CE7F2
S113233087BD92E094BD83E085BDEEE6F0E0808148
S11323408260808395BB08958FB7282F2078F894F6
S113235060917D0570917E0580917F059091800547
S1132360222309F0789408951F920F920FB60F92CA
S113237011248F939F93AF93BF9380917D05909188
S11323807E05A0917F05B09180050196A11DB11D28
S113239080937D0590937E05A0937F05B09380057F
S11323A0BF91AF919F918F910F900FBE0F901F908F
S11323B0189583E2809380008AE1809381000895D8
S11323C01092B20008950E94C61208F481E00895A4
S11323D00E94FC110C9401130E94FA1258F00E94FE
S11323E0F31240F029F45F3F29F00C94EA125111E2
S11323F00C9435130C94F0120E94121368F3992371
S1132400B1F3552391F3951B550BBB27AA276217EC
S11324107307840738F09F5F5F4F220F331F441FF9
S1132420AA1FA9F335D00E2E3AF0E0E832D091502D
S11324305040E695001CCAF72BD0FE2F29D0660F1A
S1132440771F881FBB1F261737074807AB07B0E85D
S113245009F0BB0B802DBF01FF2793585F4F3AF063
S11324609E3F510578F00C94EA120C9435135F3FAB
S1132470E4F3983ED4F3869577956795B795F795E9
S11324809F5FC9F7880F911D9695879597F90895D1
S1132490E1E0660F771F881FBB1F6217730784076D
S11324A0BA0720F0621B730B840BBA0BEE1F88F77C
S11324B0E09508950E941A1388F09F5798F0B92F59
S11324C09927B751B0F0E1F0660F771F881F991F65
S11324D01AF0BA95C9F714C0B13091F00E943413C0
S11324E0B1E008950C943413672F782F8827B85FD0
S11324F039F0B93FCCF3869577956795B395D9F7BD
S11325003EF490958095709561957F4F8F4F9F4FC6
S11325100895E89409C097FB3EF4909580957095D2
S113252061957F4F8F4F9F4F9923A9F0F92F96E91B
S1132530BB279395F695879577956795B795F11190
S1132540F8CFFAF4BB0F11F460FF1BC06F5F7F4F2D
S11325508F4F9F4F16C0882311F096E911C077233F
S113256021F09EE8872F762F05C0662371F096E848
S1132570862F70E060E02AF09A95660F771F881F17
S1132580DAF7880F9695879597F90895990F0008BB
S1132590550FAA0BE0E8FEEF16161706E807F90731
S11325A0C0F012161306E407F50798F0621B730BCC
S11325B0840B950B39F40A2661F0232B242B252B4D
S11325C021F408950A2609F4A140A6958FEF811DF0
S11325D0811D089597F99F6780E870E060E0089591
S11325E09FEF80EC089500240A9416161706180627
S11325F00906089500240A94121613061406050603
S11326000895092E0394000C11F4882352F0BB0F93
S113261040F4BF2B11F460FF04C06F5F7F4F8F4FF6
S11326209F4F089557FD9058440F551F59F05F3F31
S113263071F04795880F97FB991F61F09F3F79F0E0
S113264087950895121613061406551FF2CF469562
S1132650F1DF08C0161617061806991FF1CF8695E4
S11326607105610508940895E894BB2766277727C8
S1132670CB0197F908950E94C61208F48FEF0895CC
S11326800E9453130C9401130E94F31238F00E9419
S1132690FA1220F0952311F00C94EA120C94F01223
S11326A011240C9435130E94121370F3959FC1F3F7
S11326B0950F50E0551F629FF001729FBB27F00DEC
S11326C0B11D639FAA27F00DB11DAA1F649F662741
S11326D0B00DA11D661F829F2227B00DA11D621F90
S11326E0739FB00DA11D621F839FA00D611D221F4A
S11326F0749F3327A00D611D231F849F600D211D2E
S1132700822F762F6A2F11249F5750409AF0F1F0B0
S113271088234AF0EE0FFF1FBB1F661F771F881F19
S113272091505040A9F79E3F510580F00C94EA1255
S11327300C9435135F3FE4F3983ED4F38695779574
S11327406795B795F795E7959F5FC1F7FE2B880FBF
S1132750911D9695879597F9089597FB072E16F482
S1132760009407D077FD09D00E94111407FC05D00E
S11327703EF4909581959F4F0895709561957F4F94
S11327800895A1E21A2EAA1BBB1BFD010DC0AA1FAE
S1132790BB1FEE1FFF1FA217B307E407F50720F0C6
S11327A0A21BB30BE40BF50B661F771F881F991F41
S11327B01A9469F760957095809590959B01AC018A
S11327C0BD01CF010895052E97FB1EF400940E94CD
S11327D0FA1357FD07D00E94C11307FC03D04EF42F
S11327E00C94FA1350954095309521953F4F4F4FD7
S11327F05F4F089590958095709561957F4F8F4FA9
S11328009F4F0895A29FB001B39FC001A39F700D75
S1132810811D1124911DB29F700D811D1124911DE4
S11328200895AA1BBB1B51E107C0AA1FBB1FA61713
S1132830B70710F0A61BB70B881F991F5A95A9F765
S113284080959095BC01CD010895CF93DF93EC0161
S11328502B8120FF33C026FF0AC02F7B2B838E8160
S11328609F8101969F838E838A8190E029C022FFF5
S11328700FC0E881F9818081082E000C990B009724
S113288019F420622B831AC03196F983E8830EC0B1
S1132890EA85FB85099597FF09C02B81019611F004
S11328A080E201C080E1822B8B8308C02E813F81AE
S11328B02F5F3F4F3F832E83992702C08FEF9FEFF7
S11328C0DF91CF910895A0E0B0E0E9E6F4E10C9443
S11328D04717AE014B5F5F4FFA0161917191AF01F0
S11328E080912E0790912F070E94A614E2E00C9489
S11328F06317A0E0B0E0EFE7F4E10C944517AE01F4
S1132900495F5F4FDA016D917D91AD010CE217E0F3
S1132910F80182819381DC0113962C91139728602E
S113292013962C930E94A614D8011296ED91FC9153
S113293013972381277F2383E4E00C94611760912C
S11329402E0770912F070E949D160895ABE0B0E00A
S1132950ECEAF4E10C9437176C017B018A01FC0169
S113296017821682838181FFCCC1CE0101963C017E
S1132970F6019381F70193FD859193FF81917F0186
S1132980882309F4BAC1853239F493FD859193FF04
S113299081917F01853229F4B60190E00E949D1651
S11329A0E7CF912C212C312CFFE1F315D8F08B3299
S11329B079F038F4803279F08332A1F4232D206148
S11329C01DC08D3261F0803369F4232D216016C05F
S11329D0832D8260382EE32DE4603E2E2AC0F32D31
S11329E0F8601DC037FC2DC020ED280F2A3040F0C0
S11329F08E32B9F436FC81C1232D2064322E19C0E5
S1132A0036FE06C08AE0989E200D1124922E11C035
S1132A10EAE02E9E200D1124222EF32DF0623F2E8B
S1132A2008C08C3621F4832D8068382E02C0883685
S1132A3041F4F70193FD859193FF81917F01811109
S1132A40B3CF982F9F7D9554933028F40C5F1F4F7C
S1132A509FE399830DC0833631F0833771F083355A
S1132A6009F059C021C0F801808189830E5F1F4F8E
S1132A7088248394912C530113C02801F2E04F0E53
S1132A80511CF801A080B18036FE03C0692D70E0AE
S1132A9002C06FEF7FEFC5010E9492164C018201C4
S1132AA0F32DFF773F2E16C0280122E0420E511C61
S1132AB0F801A080B18036FE03C0692D70E002C029
S1132AC06FEF7FEFC5010E9487164C01F32DF0686C
S1132AD03F2E820133FC1BC0822D90E0881699069C
S1132AE0B0F4B60180E290E00E949D162A94F4CFDF
S1132AF0F50137FC859137FE81915F01B60190E0C5
S1132B000E949D1621102A9421E0821A91088114B2
S1132B10910471F7E8C0843611F0893641F5F80163
S1132B2037FE07C060817181828193810C5F1F4FE2
S1132B3008C060817181072E000C880B990B0E5F11
S1132B401F4FF32DFF763F2E97FF09C09095809578
S1132B50709561957F4F8F4F9F4FF0683F2E2AE00D
S1132B6030E0A3010E94D916882E861845C0853707
S1132B7031F4232D2F7EB22E2AE030E025C0932D90
S1132B80997FB92E8F36C1F018F4883579F0B5C025
S1132B90803719F0883721F0B0C0E92FE061BE2EEC
S1132BA0B4FE0DC0FB2DF460BF2E09C034FE0AC074
S1132BB0292F2660B22E06C028E030E005C020E1AF
S1132BC030E002C020E132E0F801B7FE07C06081C6
S1132BD07181828193810C5F1F4F06C06081718176
S1132BE080E090E00E5F1F4FA3010E94D916882E4B
S1132BF08618FB2DFF773F2E36FE0DC0232D2E7F2A
S1132C00A22E891458F434FE0BC032FC09C0832D63
S1132C108E7EA82E05C0B82CA32C03C0B82C01C0EE
S1132C20B92CA4FE0FC0FE01E80DF11D8081803394
S1132C3021F49A2D997EA92E09C0A2FE06C0B39450
S1132C40B39404C08A2D867809F0B394A3FC11C010
S1132C50A0FE06C0B21488F4280C922C9B180EC057
S1132C60B21460F4B60180E290E00E949D16B39421
S1132C70F7CFB21418F42B1802C0982C212CA4FE00
S1132C8010C0B60180E390E00E949D16A2FE17C01A
S1132C90A1FC03C088E790E002C088E590E0B6019B
S1132CA00CC08A2D867859F0A1FE02C08BE201C0C7
S1132CB080E2A7FC8DE2B60190E00E949D16891483
S1132CC038F4B60180E390E00E949D169A94F7CF01
S1132CD08A94F301E80DF11D8081B60190E00E9411
S1132CE09D168110F5CF222009F442CEB60180E270
S1132CF090E00E949D162A94F6CFF6018681978172
S1132D0002C08FEF9FEF2B96E2E10C945317FC0166
S1132D100590615070400110D8F7809590958E0F02
S1132D209F1F0895FC016150704001900110D8F775
S1132D30809590958E0F9F1F08950F931F93CF93A7
S1132D40DF93FB01238121FD03C08FEF9FEF2CC094
S1132D5022FF16C0468157812481358142175307CB
S1132D6044F4A081B1819D012F5F3F4F31832083C3
S1132D708C93268137812F5F3F4F3783268314C07E
S1132D808B01EC01FB010084F185E02D0995892B71
S1132D90E1F6D80116968D919C9117970196179696
S1132DA09C938E931697CE01DF91CF911F910F9133
S1132DB00895FA01AA27283051F1203181F1E894CD
S1132DC06F936E7F6E5F7F4F8F4F9F4FAF4FB1E01A
S1132DD03ED0B4E03CD0670F781F891F9A1FA11D15
S1132DE0680F791F8A1F911DA11D6A0F711D811D16
S1132DF0911DA11D20D009F468943F912AE0269FDB
S1132E0011243019305D3193DEF6CF010895462F39
S1132E104770405D4193B3E00FD0C9F7F6CF462F1A
S1132E204F70405D4A3318F0495D31FD4052419383
S1132E3002D0A9F7EACFB4E0A69597958795779540
S1132E406795BA95C9F700976105710508959B01C7
S1132E50AC010A2E06945795479537952795BA9550
S1132E60C9F7620F731F841F951FA01D08952F9229
S1132E703F924F925F926F927F928F929F92AF9206
S1132E80BF92CF92DF92EF92FF920F931F93CF9353
S1132E90DF93CDB7DEB7CA1BDB0B0FB6F894DEBFEA
S1132EA00FBECDBF09942A88398848885F846E8410
S1132EB07D848C849B84AA84B984C884DF80EE805A
S1132EC0FD800C811B81AA81B981CE0FD11D0FB663
S1132ED0F894DEBF0FBECDBFED010895F894FFCF87
S1132EE00F03BA026E020B02FA00F401E8033F0674
S1132EF05B4F666D7D077F6F0000000300000000DC
S1132F00CC0F041000007FA47F00EF1DE900FFAA8E
S1132F10550006090600436F6D626F3A2025640070
S1132F2020205F5F5F5F5F5F202020205F5F5F5F27
S1132F305F5F2020205F5F202020202020205F5F13
S1132F4020205F5F5F5F5F5F5F202020205F5F5F07
S1132F505F5F5F202000202F2020202020205C2085
S1132F60202F2020202020205C207C20205C20207A
S1132F702020202F20205C7C202020202020205C6A
S1132F8020202F2020202020205C007C20202424AE
S1132F90242424245C7C20202424242424245C7CD5
S1132FA02024245C2020202F202024247C2024245E
S1132FB024242424245C7C20202424242424240069
S1132FC07C2024242020205C24247C2024242020F1
S1132FD07C2024247C202424245C202F20202424CE
S1132FE0247C2024245F5F2F2024247C202424207C
S1132FF0207C202424007C20242420202020202025
S11330007C20242420207C2024247C202424242488
S11330105C2020242424247C2024242020202024F8
S1133020247C20242420207C202424007C2024248C
S11330302020205F5F207C20242420207C20242446
S11330407C2024245C24242024242024247C202464
S11330502424242424245C7C20242420207C202454
S113306024007C2024245F5F2F20205C7C202424E7
S11330705F5F2F2024247C202424205C2424247CAF
S11330802024247C2024245F5F2F2024247C2024DB
S1133090245F5F2F202424005C242420202020246B
S11330A024205C24242020202024247C2024242068
S11330B0205C24207C2024247C2024242020202004
S11330C02424205C242420202020242400205C2488
S11330D024242424242020205C2424242424242084
S11330E0205C24242020202020205C2424205C2414
S11330F02424242424242020205C24242424242460
S1133100200047616D652053636F72650000000005
S1133110080140200804041008022008080840029E
S1133120401004400402101008084020100400025B
S113313010010001200204804080200410040208D1
S1133140080480081040040100004004800220406C
S11331501000020204100802040220000004040803
S113316010084008040102402002400202024040CC
S11331704040404040402004082004082040021001
S11331800400048000120480100400000000000009
S11331900002082000020404102004104040408073
S11331A000200001020404202002004020400810F6
S11331B004041008084020400402081020040404F9
S11331C080080808804040200840400208400280EF
S11331D008400404022010400400080802100804F7
S11331E002022000000402041002014001101280B7
S11331F0040404080280100804404008040101107B
S11332004040401002400000100202000000000094
S1133210000008080880040204400880000004023A
S11332200440080440022001101010100000022085
S11332300440088004400220044008044040022066
S11332400440080440022001101010100000000087
S113325000000808088004020440020880000201FB
S113326004400880040220011010122000000220F3
S11332700440080440400220044008044040022066
S11332800440080440400220011010100000000017
S113329047616D652053706565643A204E6F726DA9
S11332A0616C0047616D652053706565643A204622
S11332B06173740047616D652053706565643A20DD
S11332C045787472656D650053656C6563746564F7
S11332D020547261636B3A204120426174746C65BE
S11332E020466F722054696D650053656C65637484
S11332F0656420547261636B3A20486F772046619D
S113330072204920436F756C6420476F0053656CCD
S1133310656374656420547261636B3A2054687207
S11333206F75676820746865204669726520616EF0
S11333306420466C616D6573004D616E75616C202F
S11333404D6F64650047616D6520506175736564F8
S1053350000077
S9030000FC
